:020000040800F2
:1000000000500020BD0400085D0400085F040008E3
:100010006104000863040008650400080000000093
:10002000000000000000000000000000670400085D
:1000300069040008000000006B0400086D0400085B
:100040000505000805050008050500080505000868
:100050000505000805050008050500080505000858
:100060000505000805050008050500080505000848
:100070000505000805050008050500080505000838
:100080000505000805050008050500080505000828
:100090000505000805050008050500080505000818
:1000A0000505000805050008050500080505000808
:1000B00005050008050500080505000805050008F8
:1000C00005050008050500080505000805050008E8
:1000D0000505000899020008050500080505000847
:1000E00005050008050500080505000800000000DA
:1000F0000000000000000000000000000000000000
:0C01000000000000000000005FF808F1A3
:10010C0010B5054C237833B9044B13B10448AFF345
:10011C0000800123237010BD0C00002000000000A3
:10012C00880E000808B5034B1BB103490348AFF315
:10013C00008008BD0000000010000020880E0008A0
:10014C00102210B588B00DEB0200002100F08EFEDD
:10015C00184B194C9A69204642F010029A619A6920
:10016C004FF4005102F010020192019A9A6942F088
:10017C0020029A619A6902F020020292029A9A690C
:10018C0042F004029A619B69002203F0040303937A
:10019C00039B00F045FB4FF4005201230021CDE9F5
:1001AC00042302232046CDE9061304A900F058FAD3
:1001BC0008B010BD001002400010014000B591B015
:1001CC002422002107A800F051FE1422002101A8CE
:1001DC0000F04CFE022301210693102306A8CDE962
:1001EC000A1300F023FB00210F2301A8CDE90131F4
:1001FC00CDE90311059100F0F1FC11B05DF804FBA1
:10020C0070B500F09FF9FFF7D9FFFFF799FF4FF496
:10021C00E13000F0D1F80F4800F081F80E4E0F4C91
:10022C000F4D00F043F80028FBD000F04FF83128B8
:10023C0009D1304600F06AF801224FF400512046F3
:10024C0000F0EEFAEDE73028EBD1284600F05EF82E
:10025C000022F2E7B00E0008B60E000800100140B4
:10026C00BB0E0008704730B5FA24D1F8FC20551CA1
:10027C0095FBF4F304FB1353D1F80041DBB29C4221
:10028C001CBF8854C1F8FC3030BD0000054B1B6806
:10029C001A68920604D558680349C0B2FFF7E3BF49
:1002AC00704700BF2C01002028000020FA22064BCA
:1002BC00D3F8FC00D3F80031FA30C01A90FBF2F3FB
:1002CC0002FB1300C0B2704728000020094A10B589
:1002DC00D2F80031D2F8FC1099421FBFFA24D05C3E
:1002EC00013393FBF4F116BF04FB1133FF20C2F86A
:1002FC00003110BD28000020034B1B681A68520601
:10030C00FCD55860704700BF2C01002008B5411E79
:10031C0011F8010F00B908BDFFF7EEFFF8E708B5BB
:10032C00411E11F8010F38B90D20FFF7E5FFBDE8AC
:10033C0008400A20FFF7E0BFFFF7DEFFF1E70000FF
:10034C0010B5044686B01022002102A800F08EFDE4
:10035C002268174B9A4228D103F558439A6902A98F
:10036C0042F480429A619A69124802F480420092E7
:10037C00009A9A6942F004029A619B694FF40072E8
:10038C0003F004030193019B0223CDE90223032311
:10039C00059300F065F94FF4806100230548CDE921
:1003AC00021302A9049300F05BF906B010BD00BF64
:1003BC00003801400008014038B50546114C204674
:1003CC00FFF7BEFF104B0C22C4E90035002320467A
:1003DC00C4E902332361C4E90523E36100F0F4FCB2
:1003EC0008B1FFF73FFF01220021252000F0E0F8C3
:1003FC00252000F011F92268D36843F02003D36064
:10040C0038BD00BF2C010020003801400E4B82B0DB
:10041C009A6942F001029A619A6902F00102009213
:10042C00009ADA6942F08052DA61DB69074A03F01C
:10043C0080530193019B536823F0E06343F0806386
:10044C00536002B0704700BF001002400000014032
:10045C007047FEE7FEE7FEE7FEE770477047704720
:10046C0000F082B80F4B1A6842F001021A6059680A
:10047C000D4A0A405A601A6822F0847222F48032C3
:10048C001A601A6822F480221A605A6822F4FE025A
:10049C005A604FF41F029A604FF00062034B9A604F
:1004AC00704700BF001002400000FFF800ED00E0B4
:1004BC00002103E00B4B5B58435004310A480B4BB3
:1004CC0042189A42F6D30A4A02E0002342F8043B4F
:1004DC00084B9A42F9D3FFF7C5FF00F0A3FCFFF7D6
:1004EC008FFE7047E40E0008000000200C00002076
:1004FC000C00002070010020FEE7000038B50E4B08
:10050C00054618784FF47A73B3FBF0F30B4A106876
:10051C00B0FBF3F000F08EF8044658B90F2D09D853
:10052C00024629464FF0FF3000F042F82046044BBB
:10053C001D6038BD0120FCE70400002000000020F5
:10054C0008000020074A08B51368032043F0100385
:10055C00136000F01BF80020FFF7D0FFFFF756FFE9
:10056C00002008BD00200240034A044B11681B7890
:10057C000B441360704700BF6C0100200400002086
:10058C00014B1868704700BF6C010020074A00023D
:10059C00D36800F4E06023F4E0631B041B0C43F00D
:1005AC00BF6343F400330343D360704700ED00E0B6
:1005BC00174B70B5DC684FF0FF36C4F30224C4F15E
:1005CC000705042D04F1040328BF0425062B98BF4E
:1005DC00002406FA05F388BF033C21EA0303A34079
:1005EC0006FA04F422EA0404002843EA0403A8BF30
:1005FC0000F160404FEA0313B8BF064ADBB2ABBF51
:10060C0000F5614000F00F0080F80033135470BD0A
:10061C0000ED00E014ED00E0002808DB01234209A6
:10062C0000F01F0003FA00F0014B43F82200704762
:10063C0000E100E00138B0F1807F0AD2F021064BD6
:10064C00064A586082F823100020072298601A602E
:10065C0070470120704700BF10E000E000ED00E0A3
:10066C002DE9F74F00242646654BDFF8A4C1DFF8CF
:10067C00A4E10A6832FA06F502D103B0BDE8F08FA6
:10068C004FF0010808FA06F802EA080290457ED1FC
:10069C004D68122D00F0A98000F28280022D00F02E
:1006AC00A18076D8002D00F08880012D00F0988074
:1006BC004FF00F09FF2A93BF824606F18045083D93
:1006CC00D0F800B092BFB500D0F804B0AD0009FA74
:1006DC0005F82BEA080804FA05F588BF00F1040AAE
:1006EC0048EA0505CAF80050D1F804A01AF0805F5A
:1006FC004DD0444F26F00308BD6908F1804845F001
:10070C000105BD61BD6908F5803805F0010501954D
:10071C0006F0030B019D4FEA8B0BD8F8085009FA31
:10072C000BF925EA0909384DA84263D005F5806517
:10073C00A84261D005F58065A8425FD005F58065BB
:10074C00A8420CBF0325042505FA0BF545EA09055B
:10075C00C8F808501D681AF4803F14BF1543954320
:10076C001D605D681AF4003F14BF154395435D602E
:10077C009D681AF4801F14BF154395439D60DD6876
:10078C001AF4001F14BF2A4325EA0202DA6001366C
:10079C006FE7032D22D0112D8AD1CC68043487E762
:1007AC001A4FBD4209D012D8DFF86C904D4504D0D9
:1007BC0009F580394D457FF47BAF8C68C4B1012CB1
:1007CC000CBFC0F81080C0F81480082470E7654591
:1007DC00F3D07545F1D0DFF84490EBE7002467E7E0
:1007EC00CC6865E7CC68083462E7CC680C345FE70A
:1007FC0004245DE70025A7E70125A5E70225A3E76B
:10080C0000040140001002400008014000002110CB
:10081C0000003110000032100000111000002210F6
:10082C000AB1016170470904FBE700002DE9F341AF
:10083C00054608B901203CE00368DB0710D42B689F
:10084C009F075DD42B68190700F194802B685A0719
:10085C0000F1BE80E869002840F02C81002028E0DF
:10086C008F4C636803F00C03042B07D0636803F010
:10087C000C03082B09D16368DE0306D523689C039F
:10088C00DDD56B68002BDAD1D4E76B68B3F5803F0C
:10089C0012D1236843F480332360FFF771FE0646C0
:1008AC0023689803CBD4FFF76BFE801B6428F7D921
:1008BC00032002B0BDE8F0819BB9236823F4803398
:1008CC002360236823F480232360FFF759FE064638
:1008DC0023689903B3D5FFF753FE801B6428F7D91F
:1008EC00E6E7B3F5A02F236803D143F480232360FC
:1008FC00CFE723F480332360236823F48023CBE7F2
:10090C00674C636813F00C0F07D0636803F00C039B
:10091C00082B10D16368DA030DD423689B0702D52A
:10092C002B69012B86D123686A6923F0F80343EA0B
:10093C00C203236086E72A695A4B6AB101221A6006
:10094C00FFF71EFE064623689F07ECD4FFF718FE40
:10095C00801B0228F7D9ABE71A60FFF711FE064699
:10096C00236898077FF56EAFFFF70AFE801B0228FD
:10097C00F6D99DE7AA694A4C4B4BDAB101221A60B1
:10098C00FFF7FEFD0646636A9B070DD54FF4FA523E
:10099C00464B1B68B3FBF2F3019300BF019B5A1E3D
:1009AC000192002BF9D151E7FFF7EAFD801B0228D9
:1009BC00E9D97DE71A60FFF7E3FD0646636A9F07F6
:1009CC007FF544AFFFF7DCFD801B0228F6D96FE7FB
:1009DC00334CE369D80024D40127E36943F08053F6
:1009EC00E361E36903F080530093009B304E33685E
:1009FC00D90518D5EB68012B26D1236A43F00103E6
:100A0C002362FFF7BDFD41F288368046236A9B07BF
:100A1C003FD5002F3FF41EAFE36923F08053E36111
:100A2C0018E70027E2E7336843F480733360FFF77D
:100A3C00A7FD80463368DA05DCD4FFF7A1FDA0EBF7
:100A4C0008006428F6D933E7ABB9236A41F2883839
:100A5C0023F001032362236A23F004032362FFF7CC
:100A6C008FFD0646236A9807D3D5FFF789FD801BB7
:100A7C004045F7D91CE7052B236A03D143F0040347
:100A8C002362BAE723F001032362236A23F00403F1
:100A9C00B6E7FFF775FDA0EB0800B042B6D907E743
:100AAC00001002400000424280044242000000203C
:100ABC00007000402A4B5A681C4602F00C02082AAF
:100ACC003DD00023274E022833602BD1FFF758FD71
:100ADC000746236899011FD42B6AB3F5803F05D1D3
:100AEC006268A96822F400320A436260696A62682B
:100AFC000B4322F474121343636001233360FFF73A
:100B0C003FFD054623689A013FF5A8AEFFF738FD77
:100B1C00401B0228F6D9CBE6FFF732FDC01B02289A
:100B2C00D7D9C5E6FFF72CFD054623689B017FF559
:100B3C0095AEFFF725FD401B0228F6D9B8E6012833
:100B4C003FF4B7AE58682B6A00F480329A427FF4B7
:100B5C0071AE6B6A00F47010C01A18BF0120A8E6C1
:100B6C00001002406000424230B5184B87B002AC16
:100B7C0003F11005224618685968083303C2AB42CA
:100B8C001446F7D140F201231149ADF804304B68FB
:100B9C0003F00C02082A17D1C3F3834206A80244BF
:100BAC00DB0312F8102C0CD54B680A48C3F34043F6
:100BBC00504306AA134413F8143CB0FBF3F007B0EF
:100BCC0030BD05485043FAE70248F8E7A00E00088C
:100BDC000010024000127A0000093D002DE9F0419E
:100BEC000D46044610B90120BDE8F081444A136853
:100BFC0003F007038B4228D321688E0730D4CA0731
:100C0C0043D43F4A136803F00703AB4265D822680C
:100C1C003C4D12F0040F6CD1130706D56B6822699A
:100C2C0023F4605343EAC2036B60FFF79DFF6B68CC
:100C3C00354AC3F30313D35CD840344B1860344BA0
:100C4C001868FFF75BFC0020CEE7136823F007035E
:100C5C000B431360136803F007038B42C3D1CBE73C
:100C6C00284B11F0040F1EBF5A6842F4E0625A6020
:100C7C00080742BF5A6842F460525A605A68A0682A
:100C8C0022F0F00202435A60B9E762681D4E012A55
:100C9C0033681AD113F4003FA5D0736841F2883839
:100CAC0023F0030313437360FFF76AFC0746736872
:100CBC00626803F00C03B3EB820FA2D0FFF760FC69
:100CCC00C01B4045F3D903208EE7022A02D113F052
:100CDC00007FE1E713F0020FDEE7136823F0070350
:100CEC002B431360136803F00703AB427FF47BAF15
:100CFC008DE76B68E16823F4E0630B436B608BE773
:100D0C000020024000100240C10E0008000000202C
:100D1C0008000020044B054A5B68C3F30223D35C34
:100D2C00034A1068D840704700100240D10E0008EA
:100D3C0000000020044B054A5B68C3F3C223D35C5C
:100D4C00034A1068D840704700100240D10E0008CA
:100D5C000000002038B505460368C1681A691924DB
:100D6C0022F440520A431A6182680069D96802432E
:100D7C00686921F4B05121F00C0102430A43DA6096
:100D8C005A69A96922F440720A435A610D4A934286
:100D9C0014D1FFF7CFFF60436C686422A400B0FB52
:100DAC00F4F0B0FBF2F102FB11031B013233B3FB85
:100DBC00F2F32C6803EB0113A36038BDFFF7AAFF15
:100DCC00E9E700BF0038014010B5044640B390F885
:100DDC00393003F0FF021BB980F83820FFF7B0FA66
:100DEC002423226884F83930D368204623F4005336
:100DFC00D360FFF7AFFF236800201A6922F49042FA
:100E0C001A615A6922F02A025A61DA6842F40052D5
:100E1C00DA602023E06384F8393084F83A3010BD6E
:100E2C000120FCE770B500250C4E0D4CA41BA41042
:100E3C00A54209D100F022F800250A4E0A4CA41B49
:100E4C00A410A54205D170BD56F825309847013540
:100E5C00EEE756F8253098470135F2E7DC0E00082E
:100E6C00DC0E0008DC0E0008E00E0008034602440D
:100E7C00934200D1704703F8011BF9E7F8B500BFA6
:100E8C00F8BC08BC9E467047F8B500BFF8BC08BC5F
:040E9C009E467047B7
:100EA00002030405060708090A0B0C0D0E0F1010AB
:100EB000626567696E006F6E652D007A65726F2DD1
:100EC0000000000000000000000102030406070803
:0C0ED00009000000000102030400000003
:040EDC0031010008D8
:040EE0000D010008F8
:0C0EE4000024F4000100000010000000D9
:04000005080004BD2E
:00000001FF
